:060000000A128A110C280F
:10000800FE00030EF1000A08F2000A128A11812884
:100018000A128A110F28F50183010A128A11A928E8
:1000280002308316031788008901233083160313CF
:100038008500831203138501831603138801831235
:1000480003138801831603130F088F3940388F0074
:100058000F1483120313051C322833286728103025
:10006800831603138700831203138701F030940566
:100078001412941683160313141794177508831211
:10008800031393008B170B170C13831603130C170A
:10009800831203131F083F3940389F008316031348
:1000A8001F129F12831203131F08C33904389F00BD
:1000B800831603139F13831203131F140330F300D3
:1000C800F30B6428802818308316031387008312E3
:1000D800031387011408F039043894001412941695
:1000E8008316031314179413831203138C118316A6
:1000F80003138C158B170B170800831203138C1D21
:100108008628872890280330F000F00B892883126E
:100118000313130888008C110C1F93289428A22815
:100128001F0CF000700C0F39013A031D9C289D2804
:10013800A1281E08F0007008F5000C1372088A0048
:10014800710E8300FE0E7E0E09000A128A11142019
:100158000A128A11831203139F18B328B428B528EA
:100168009F14051CB828B928AE280330F400F40BF6
:10017800BB2883160313141CC228C328AE2875088D
:1001880083120313930075088800AE280A128A1197
:020198000C2831
:08400000FF3FFF3FFF3FFF3FC0
:04400E00D420FF3F7C
:00000001FF
