:060000000A128A110C280F
:10000800FE00030EF1000A08F2000A128A11CC2839
:100018000A128A110F28F60183010A128A1114287C
:100028000A128A117B200A128A11831203139F185D
:100038001E281F2824289F140330F400F40B2228BC
:100048008312031305171130F5003A30F400F40B4E
:100058002B28F50B2B28000083120313851311306E
:10006800F5003A30F400F40B3728F50B3728000078
:10007800760883120313930083160313141C452870
:100088004628402876088312031386008517113006
:10009800F5003A30F400F40B4F28F50B4F28000018
:1000A8008312031305131130F5003A30F400F40BF2
:1000B8005B28F50B5B280000FF30831203139300C5
:1000C80083160313141C69286A28642883120313EF
:1000D800130888002130F5007630F400F40B7228FC
:1000E800F50B7228000019280A128A110C28023010
:1000F80083160317880089010230831603138500CD
:1001080083120313850183160313860183120313D5
:10011800860183160313880183120313880183164B
:1001280003130F088F3940388F000F1410308700E1
:10013800831203138701F030940514129416831662
:1001480003131417941732308312031393008B1779
:100158000B170C13831603130C17831203131F08B2
:100168003F3940389F00831603131F129F128312D2
:1001780003131F08C33904389F00831603139F1302
:10018800831203131F140330F300F30BC92808006C
:10019800831203130C1FD128D228E0281F0CF0006B
:1001A800700C0F39013A031DDA28DB28DF281E08F6
:1001B800F0007008F6000C1372088A00710E8300B4
:0601C800FE0E7E0E090090
:08400000FF3FFF3FFF3FFF3FC0
:04400E00D420FF3F7C
:00000001FF
